:020000040800F2
:100000006806002089010008870400087F040008B2
:100010008304000843020008750A0008000000007D
:10002000000000000000000000000000AD07000814
:10003000470200080000000069070008990800084E
:10004000A3010008A3010008A3010008A301000800
:10005000A3010008A301000891020008C1020008E2
:10006000A3010008A3010008A3010008A3010008E0
:10007000A3010008A3010008A3010008A3010008D0
:10008000A3010008A3010008A3010008A3010008C0
:10009000A3010008A3010008A3010008F102000861
:1000A000A3010008A3010008A3010008A3010008A0
:1000B000A3010008A3010008A3010008A301000890
:1000C000A3010008A3010008A3010008A301000880
:1000D000A3010008A3010008A3010008A301000870
:1000E000A3010008A3010008A301000800F002F822
:1000F00000F03AF80AA090E8000C82448344AAF188
:100100000107DA4501D100F02FF8AFF2090EBAE885
:100110000F0013F0010F18BFFB1A43F0010318473B
:10012000C0090000E0090000103A24BF78C878C177
:10013000FAD8520724BF30C830C144BF04680C60ED
:10014000704700000023002400250026103A28BF35
:1001500078C1FBD8520728BF30C148BF0B60704739
:100160001FB51FBD10B510BD00F031F81146FFF7E7
:10017000F7FF00F081FC00F04FF803B4FFF7F2FF47
:1001800003BC00F057F800000948804709480047C1
:10019000FEE7FEE7FEE7FEE7FEE7FEE7FEE7FEE737
:1001A000FEE7FEE704480549054A064B7047000094
:1001B0009D080008ED000008680000206806002087
:1001C000680200206802002070477047704775463B
:1001D00000F02CF8AE4605006946534620F00700B3
:1001E000854618B020B5FFF7DDFFBDE820404FF091
:1001F00000064FF000074FF000084FF0000B21F011
:100200000701AC46ACE8C009ACE8C009ACE8C009DD
:10021000ACE8C0098D46704710B50446AFF30080C6
:100220002046BDE81040FFF7A8BF00000048704717
:100230000800002001491820ABBEFEE7260002009E
:10024000704700BFFEE7704700B5034603E04FF478
:100250007A7000F005F8181EA3F10103F7D100BD74
:1002600000EBC001C9004FF0E02251610021916113
:100270000521116100BF4FF0E021096901F48031CF
:100280000029F8D004214FF0E022116170470000EE
:1002900010B5012000F046F801280CD101210648D4
:1002A00000F0DFF820B905480088401E03490880A7
:1002B000012000F031F810BD0008014004000020CA
:1002C00010B5022000F02EF801280CD102210648BA
:1002D00000F0C7F820B905480088401C0349088091
:1002E000022000F019F810BD0008014004000020B1
:1002F00010B54FF4807000F015F8012808D10548BA
:100300000088401C034908804FF4807000F004F816
:1003100010BD000002000020014908607047000085
:1003200014040140014600200022074B1B6803EA29
:100330000102054B14331B680B4013B10AB10120B5
:1003400000E0002070470000000401402DE9F0416A
:10035000024600250026002000230024002791F8F3
:1003600003C00CF00F0591F803C00CF0100CBCF1A9
:10037000000F03D091F802C04CEA050591F800C0C7
:10038000BCF1000F31D0146800202BE04FF0010CBD
:100390000CFA00F3B1F800C00CEA03069E4220D12B
:1003A00083004FF00F0C0CFA03F7BC4305FA03FC73
:1003B0004CEA040491F803C0BCF1280F06D14FF0B9
:1003C000010C0CFA00FCC2F814C00AE091F803C05A
:1003D000BCF1480F05D14FF0010C0CFA00FCC2F83B
:1003E00010C0401C0828D1D31460B1F800C0BCF183
:1003F000FF0F34DD546800202EE000F1080C4FF0B0
:10040000010808FA0CF3B1F800C00CEA03069E429A
:1004100021D183004FF00F0C0CFA03F7BC4305FA0F
:1004200003FC4CEA040491F803C0BCF1280F05D189
:1004300000F1080C08FA0CF8C2F8148091F803C017
:10044000BCF1480F07D100F1080C4FF0010808FA81
:100450000CF8C2F81080401C0828CED35460BDE8C8
:10046000F0810246002093680B400BB1012000E0B0
:10047000002070470AB1016100E04161704700BF90
:10048000FEE700BFFEE7704770B500240EE00021D4
:10049000204600F0E4F8002504E0002000F000F918
:1004A000681CC5B2802DF8DB601CC4B2082CEEDBE2
:1004B00070BD000008B50121082000F067F9142084
:1004C0008DF8030003208DF802008020ADF80000B5
:1004D00069460B48FFF73AFF4FF48070ADF8000013
:1004E00069460748FFF732FF012280210448FFF7E1
:1004F000C1FF012211020248FFF7BCFF08BD000046
:10050000000C014070B50546002414E08020204115
:1005100000EA05024FF480710D48FFF7ABFF01229E
:1005200080210B48FFF7A6FF002280210848FFF733
:10053000A1FF601CC4B2082CE8DB01228021044822
:10054000FFF798FF002280210148FFF793FF70BD5D
:10055000000C014010B5012211020A48FFF78AFF82
:10056000012280210748FFF785FF00224FF48071A8
:100570000448FFF77FFF002280210248FFF77AFF3F
:1005800010BD0000000C014010B500224FF4807136
:100590000648FFF76FFF012280210448FFF76AFF3A
:1005A000012211020148FFF765FF10BD000C014058
:1005B00070B5002406E0002500E06D1CB5F57A7FDB
:1005C000FBD3641CB4F57A7FF5D3FFF773FFAE203D
:1005D00000F056F8D52000F053F8802000F050F8D5
:1005E000A82000F04DF83F2000F04AF8D32000F09A
:1005F00047F8002000F044F8402000F041F8A12026
:1006000000F03EF8C82000F03BF8DA2000F038F89F
:10061000122000F035F8812000F032F8CF2000F0F1
:100620002FF8D92000F02CF8F12000F029F8DB2079
:1006300000F026F8302000F023F8A42000F020F885
:10064000A62000F01DF88D2000F01AF8142000F00C
:1006500017F8AF2000F014F8FFF716FF70BD70B563
:1006600005460C4645F0B00000F00AF8102141EABA
:10067000141000F005F804F00F0000F001F870BD50
:1006800010B50446FFF766FF7820FFF73BFF002018
:10069000FFF738FF2046FFF735FFFFF775FF10BD66
:1006A00010B50446FFF756FF7820FFF72BFF4020D8
:1006B000FFF728FF2046FFF725FFFFF765FF10BD76
:1006C00000B589B00121042000F060F8012108463E
:1006D00000F04CF818208DF823000120ADF8200020
:1006E00003208DF8220008A91A48FFF72FFE4FF0CB
:1006F000804000F00FF90020ADF81A00ADF81600A8
:100700006320ADF8180040F2CF20ADF814000020AF
:100710008DF81C0005A94FF0804000F059F901A8A0
:1007200000F04AF96020ADF804000020ADF80C009C
:100730000120ADF806000020ADF80A0001A94FF035
:10074000804000F0EDF80121880700F0D7F809B0EB
:1007500000BD00000008014010B5044621464FF0DE
:10076000804000F033F910BD7047000029B1064AFF
:10077000D2690243044BDA6104E0034AD26982433E
:10078000014BDA61704700000010024029B1064AAF
:1007900092690243044B9A6104E0034A92698243DE
:1007A000014B9A617047000000100240704710B57D
:1007B00000F002F810BD00000CB500200190009080
:1007C0003348006840F480303149086000BF304849
:1007D000006800F4003000900198401C01900098DF
:1007E00018B90198B0F5A06FF1D12948006800F45C
:1007F000003010B10120009001E00020009000982E
:10080000012843D12348006840F0100021490860C6
:100810000846006820F0030008600846006840F0C1
:10082000020008601A484068194948600846406854
:1008300048600846406840F4806048600846406868
:1008400020F47C1048600846406840F4E810486096
:100850000846006840F08070086000BF0C480068DF
:1008600000F000700028F9D00948406820F003002B
:10087000074948600846406840F00200486000BFF1
:100880000348406800F00C000828F9D10CBD0000B6
:1008900000100240002002407047000010B51348CD
:1008A000006840F00100114908600846406810499E
:1008B00008400E494860084600680E4908400B4948
:1008C00008600846006820F48020086008464068F8
:1008D00020F4FE0048604FF41F008860FFF767FFB8
:1008E0004FF000600449086010BD00000010024095
:1008F0000000FFF8FFFFF6FE08ED00E021B10288DE
:1009000042F00102028004E002884FF6FE731A40B2
:100910000280704701894FF6F872114001817047DB
:1009200070B5002400220023058C4FF6FE7635407A
:100930000584028C8388048B4FF68F752C40B51E7E
:100940002C400D882C43751E2A400D892A434D8862
:100950002A43144DA8420BD0134DA84208D0134D82
:10096000A84205D0124DA84202D0124DA84213D180
:100970004FF6F7752A404D892A434FF6FB752A40FA
:100980008D882A434FF6FF652B404FF6FF552B40CD
:100990008D892B43CD892B4383800483CD88858625
:1009A000028470BD002C0140003401400040014031
:1009B00000440140004801400021018041808180C5
:1009C000C180018141818181C181704781867047E9
:1009D000002202881D4B98420ED01D4B98420BD02E
:1009E000B0F1804F08D01B4B984205D01A4B98426B
:1009F00002D01A4B984204D14FF68F731A404B889D
:100A00001A43174B984207D0164B984204D04FF622
:100A1000FF431A40CB881A4302808B8883850B885A
:100A200003850A4B98420BD0094B984208D00E4BD5
:100A3000984205D00D4B984202D00D4B984201D1FF
:100A40000B7A03860123838270470000002C01404B
:100A5000003401400004004000080040000C004049
:100A600000100040001400400040014000440140DC
:100A70000048014000BFFEE7FFF79AFDFFF720FEA8
:100A80002AE00020154908700BE014480078FFF7B1
:100A900063FE0A20FFF7D8FB10480078401C0F497E
:100AA00008700E4800786428EFDD00200B490870BC
:100AB0000EE00A490978C1F1640188B2FFF74CFEE3
:100AC0000A20FFF7C1FB05480078401C0349087065
:100AD000024800786428ECDDD3E700000000002025
:100AE000000B00080000002008000000280100089A
:100AF000080B000808000020600600004401000800
:080B00000000000000000000ED
:04000005080000ED02
:00000001FF
